{
  "_format": "hh-sol-artifact-1",
  "contractName": "ERC721",
  "sourceName": "contracts/IERC721.sol",
  "abi": [
    {
      "anonymous": false,
      "inputs": [
        {
          "indexed": true,
          "internalType": "address",
          "name": "owner",
          "type": "address"
        },
        {
          "indexed": true,
          "internalType": "address",
          "name": "approved",
          "type": "address"
        },
        {
          "indexed": true,
          "internalType": "uint256",
          "name": "tokenId",
          "type": "uint256"
        }
      ],
      "name": "Approval",
      "type": "event"
    },
    {
      "anonymous": false,
      "inputs": [
        {
          "indexed": true,
          "internalType": "address",
          "name": "owner",
          "type": "address"
        },
        {
          "indexed": true,
          "internalType": "address",
          "name": "operator",
          "type": "address"
        },
        {
          "indexed": false,
          "internalType": "bool",
          "name": "approved",
          "type": "bool"
        }
      ],
      "name": "ApprovalForAll",
      "type": "event"
    },
    {
      "anonymous": false,
      "inputs": [
        {
          "indexed": true,
          "internalType": "address",
          "name": "from",
          "type": "address"
        },
        {
          "indexed": true,
          "internalType": "address",
          "name": "to",
          "type": "address"
        },
        {
          "indexed": true,
          "internalType": "uint256",
          "name": "tokenId",
          "type": "uint256"
        }
      ],
      "name": "Transfer",
      "type": "event"
    },
    {
      "inputs": [
        {
          "internalType": "address",
          "name": "to",
          "type": "address"
        },
        {
          "internalType": "uint256",
          "name": "tokenId",
          "type": "uint256"
        }
      ],
      "name": "approve",
      "outputs": [],
      "stateMutability": "nonpayable",
      "type": "function"
    },
    {
      "inputs": [
        {
          "internalType": "address",
          "name": "owner",
          "type": "address"
        }
      ],
      "name": "balanceOf",
      "outputs": [
        {
          "internalType": "uint256",
          "name": "",
          "type": "uint256"
        }
      ],
      "stateMutability": "view",
      "type": "function"
    },
    {
      "inputs": [
        {
          "internalType": "uint256",
          "name": "tokenId",
          "type": "uint256"
        }
      ],
      "name": "burn",
      "outputs": [],
      "stateMutability": "nonpayable",
      "type": "function"
    },
    {
      "inputs": [
        {
          "internalType": "uint256",
          "name": "tokenId",
          "type": "uint256"
        }
      ],
      "name": "getApproved",
      "outputs": [
        {
          "internalType": "address",
          "name": "",
          "type": "address"
        }
      ],
      "stateMutability": "view",
      "type": "function"
    },
    {
      "inputs": [
        {
          "internalType": "address",
          "name": "owner",
          "type": "address"
        },
        {
          "internalType": "address",
          "name": "operator",
          "type": "address"
        }
      ],
      "name": "isApprovedForAll",
      "outputs": [
        {
          "internalType": "bool",
          "name": "",
          "type": "bool"
        }
      ],
      "stateMutability": "view",
      "type": "function"
    },
    {
      "inputs": [
        {
          "internalType": "address",
          "name": "to",
          "type": "address"
        },
        {
          "internalType": "uint256",
          "name": "tokenId",
          "type": "uint256"
        }
      ],
      "name": "mint",
      "outputs": [],
      "stateMutability": "nonpayable",
      "type": "function"
    },
    {
      "inputs": [
        {
          "internalType": "uint256",
          "name": "tokenId",
          "type": "uint256"
        }
      ],
      "name": "ownerOf",
      "outputs": [
        {
          "internalType": "address",
          "name": "owner",
          "type": "address"
        }
      ],
      "stateMutability": "view",
      "type": "function"
    },
    {
      "inputs": [
        {
          "internalType": "address",
          "name": "from",
          "type": "address"
        },
        {
          "internalType": "address",
          "name": "to",
          "type": "address"
        },
        {
          "internalType": "uint256",
          "name": "tokenId",
          "type": "uint256"
        }
      ],
      "name": "safeTransferFrom",
      "outputs": [],
      "stateMutability": "nonpayable",
      "type": "function"
    },
    {
      "inputs": [
        {
          "internalType": "address",
          "name": "from",
          "type": "address"
        },
        {
          "internalType": "address",
          "name": "to",
          "type": "address"
        },
        {
          "internalType": "uint256",
          "name": "tokenId",
          "type": "uint256"
        },
        {
          "internalType": "bytes",
          "name": "_data",
          "type": "bytes"
        }
      ],
      "name": "safeTransferFrom",
      "outputs": [],
      "stateMutability": "nonpayable",
      "type": "function"
    },
    {
      "inputs": [
        {
          "internalType": "address",
          "name": "operator",
          "type": "address"
        },
        {
          "internalType": "bool",
          "name": "approved",
          "type": "bool"
        }
      ],
      "name": "setApprovalForAll",
      "outputs": [],
      "stateMutability": "nonpayable",
      "type": "function"
    },
    {
      "inputs": [
        {
          "internalType": "bytes4",
          "name": "interfaceId",
          "type": "bytes4"
        }
      ],
      "name": "supportsInterface",
      "outputs": [
        {
          "internalType": "bool",
          "name": "",
          "type": "bool"
        }
      ],
      "stateMutability": "pure",
      "type": "function"
    },
    {
      "inputs": [
        {
          "internalType": "address",
          "name": "from",
          "type": "address"
        },
        {
          "internalType": "address",
          "name": "to",
          "type": "address"
        },
        {
          "internalType": "uint256",
          "name": "tokenId",
          "type": "uint256"
        }
      ],
      "name": "transferFrom",
      "outputs": [],
      "stateMutability": "nonpayable",
      "type": "function"
    }
  ],
  "bytecode": "0x608060405234801561001057600080fd5b50611daa806100206000396000f3fe608060405234801561001057600080fd5b50600436106100b45760003560e01c806342966c681161007157806342966c68146101895780636352211e146101a557806370a08231146101d5578063a22cb46514610205578063b88d4fde14610221578063e985e9c51461023d576100b4565b806301ffc9a7146100b9578063081812fc146100e9578063095ea7b31461011957806323b872dd1461013557806340c10f191461015157806342842e0e1461016d575b600080fd5b6100d360048036038101906100ce91906114ff565b61026d565b6040516100e091906117a5565b60405180910390f35b61010360048036038101906100fe9190611551565b61033f565b604051610110919061173e565b60405180910390f35b610133600480360381019061012e91906114c3565b61041d565b005b61014f600480360381019061014a91906113bd565b610563565b005b61016b600480360381019061016691906114c3565b6105cc565b005b610187600480360381019061018291906113bd565b6107e4565b005b6101a3600480360381019061019e9190611551565b610804565b005b6101bf60048036038101906101ba9190611551565b610976565b6040516101cc919061173e565b60405180910390f35b6101ef60048036038101906101ea9190611358565b610a22565b6040516101fc9190611900565b60405180910390f35b61021f600480360381019061021a9190611487565b610ada565b005b61023b6004803603810190610236919061140c565b610bd7565b005b61025760048036038101906102529190611381565b610c42565b60405161026491906117a5565b60405180910390f35b60007f80ac58cd000000000000000000000000000000000000000000000000000000007bffffffffffffffffffffffffffffffffffffffffffffffffffffffff1916827bffffffffffffffffffffffffffffffffffffffffffffffffffffffff1916148061033857507f01ffc9a7000000000000000000000000000000000000000000000000000000007bffffffffffffffffffffffffffffffffffffffffffffffffffffffff1916827bffffffffffffffffffffffffffffffffffffffffffffffffffffffff1916145b9050919050565b60008073ffffffffffffffffffffffffffffffffffffffff1660008084815260200190815260200160002060009054906101000a900473ffffffffffffffffffffffffffffffffffffffff1673ffffffffffffffffffffffffffffffffffffffff1614156103e2576040517f08c379a00000000000000000000000000000000000000000000000000000000081526004016103d990611840565b60405180910390fd5b6002600083815260200190815260200160002060009054906101000a900473ffffffffffffffffffffffffffffffffffffffff169050919050565b600080600083815260200190815260200160002060009054906101000a900473ffffffffffffffffffffffffffffffffffffffff1690508073ffffffffffffffffffffffffffffffffffffffff163373ffffffffffffffffffffffffffffffffffffffff1614806105145750600360008273ffffffffffffffffffffffffffffffffffffffff1673ffffffffffffffffffffffffffffffffffffffff16815260200190815260200160002060003373ffffffffffffffffffffffffffffffffffffffff1673ffffffffffffffffffffffffffffffffffffffff16815260200190815260200160002060009054906101000a900460ff165b610553576040517f08c379a000000000000000000000000000000000000000000000000000000000815260040161054a90611800565b60405180910390fd5b61055e818484610cd6565b505050565b600061056e82610976565b905061057b813384610d88565b6105ba576040517f08c379a00000000000000000000000000000000000000000000000000000000081526004016105b1906117c0565b60405180910390fd5b6105c681858585610ebc565b50505050565b600073ffffffffffffffffffffffffffffffffffffffff168273ffffffffffffffffffffffffffffffffffffffff16141561063c576040517f08c379a000000000000000000000000000000000000000000000000000000000815260040161063390611820565b60405180910390fd5b600073ffffffffffffffffffffffffffffffffffffffff1660008083815260200190815260200160002060009054906101000a900473ffffffffffffffffffffffffffffffffffffffff1673ffffffffffffffffffffffffffffffffffffffff16146106dd576040517f08c379a00000000000000000000000000000000000000000000000000000000081526004016106d4906118a0565b60405180910390fd5b60018060008473ffffffffffffffffffffffffffffffffffffffff1673ffffffffffffffffffffffffffffffffffffffff168152602001908152602001600020600082825461072c919061199e565b925050819055508160008083815260200190815260200160002060006101000a81548173ffffffffffffffffffffffffffffffffffffffff021916908373ffffffffffffffffffffffffffffffffffffffff160217905550808273ffffffffffffffffffffffffffffffffffffffff16600073ffffffffffffffffffffffffffffffffffffffff167fddf252ad1be2c89b69c2b068fc378daa952ba7f163c4a11628f55a4df523b3ef60405160405180910390a45050565b6107ff83838360405180602001604052806000815250610bd7565b505050565b600061080f82610976565b90508073ffffffffffffffffffffffffffffffffffffffff163373ffffffffffffffffffffffffffffffffffffffff161461087f576040517f08c379a000000000000000000000000000000000000000000000000000000000815260040161087690611880565b60405180910390fd5b61088b81600084610cd6565b60018060008373ffffffffffffffffffffffffffffffffffffffff1673ffffffffffffffffffffffffffffffffffffffff16815260200190815260200160002060008282546108da91906119f4565b9250508190555060008083815260200190815260200160002060006101000a81549073ffffffffffffffffffffffffffffffffffffffff021916905581600073ffffffffffffffffffffffffffffffffffffffff168273ffffffffffffffffffffffffffffffffffffffff167fddf252ad1be2c89b69c2b068fc378daa952ba7f163c4a11628f55a4df523b3ef60405160405180910390a45050565b600080600083815260200190815260200160002060009054906101000a900473ffffffffffffffffffffffffffffffffffffffff169050600073ffffffffffffffffffffffffffffffffffffffff168173ffffffffffffffffffffffffffffffffffffffff161415610a1d576040517f08c379a0000000000000000000000000000000000000000000000000000000008152600401610a1490611840565b60405180910390fd5b919050565b60008073ffffffffffffffffffffffffffffffffffffffff168273ffffffffffffffffffffffffffffffffffffffff161415610a93576040517f08c379a0000000000000000000000000000000000000000000000000000000008152600401610a8a90611860565b60405180910390fd5b600160008373ffffffffffffffffffffffffffffffffffffffff1673ffffffffffffffffffffffffffffffffffffffff168152602001908152602001600020549050919050565b80600360003373ffffffffffffffffffffffffffffffffffffffff1673ffffffffffffffffffffffffffffffffffffffff16815260200190815260200160002060008473ffffffffffffffffffffffffffffffffffffffff1673ffffffffffffffffffffffffffffffffffffffff16815260200190815260200160002060006101000a81548160ff0219169083151502179055508173ffffffffffffffffffffffffffffffffffffffff163373ffffffffffffffffffffffffffffffffffffffff167f17307eab39ab6107e8899845ad3d59bd9653f200f220920489ca2b5937696c3183604051610bcb91906117a5565b60405180910390a35050565b6000610be283610976565b9050610bef813385610d88565b610c2e576040517f08c379a0000000000000000000000000000000000000000000000000000000008152600401610c25906117c0565b60405180910390fd5b610c3b8186868686611104565b5050505050565b6000600360008473ffffffffffffffffffffffffffffffffffffffff1673ffffffffffffffffffffffffffffffffffffffff16815260200190815260200160002060008373ffffffffffffffffffffffffffffffffffffffff1673ffffffffffffffffffffffffffffffffffffffff16815260200190815260200160002060009054906101000a900460ff16905092915050565b816002600083815260200190815260200160002060006101000a81548173ffffffffffffffffffffffffffffffffffffffff021916908373ffffffffffffffffffffffffffffffffffffffff160217905550808273ffffffffffffffffffffffffffffffffffffffff168473ffffffffffffffffffffffffffffffffffffffff167f8c5be1e5ebec7d5bd14f71427d1e84f3dd0314c0f7b2291e5b200ac8c7c3b92560405160405180910390a4505050565b60008373ffffffffffffffffffffffffffffffffffffffff168373ffffffffffffffffffffffffffffffffffffffff161480610e2257508273ffffffffffffffffffffffffffffffffffffffff166002600084815260200190815260200160002060009054906101000a900473ffffffffffffffffffffffffffffffffffffffff1673ffffffffffffffffffffffffffffffffffffffff16145b80610eb35750600360008573ffffffffffffffffffffffffffffffffffffffff1673ffffffffffffffffffffffffffffffffffffffff16815260200190815260200160002060008473ffffffffffffffffffffffffffffffffffffffff1673ffffffffffffffffffffffffffffffffffffffff16815260200190815260200160002060009054906101000a900460ff165b90509392505050565b8373ffffffffffffffffffffffffffffffffffffffff168373ffffffffffffffffffffffffffffffffffffffff1614610f2a576040517f08c379a0000000000000000000000000000000000000000000000000000000008152600401610f21906118e0565b60405180910390fd5b600073ffffffffffffffffffffffffffffffffffffffff168273ffffffffffffffffffffffffffffffffffffffff161415610f9a576040517f08c379a0000000000000000000000000000000000000000000000000000000008152600401610f91906117e0565b60405180910390fd5b610fa684600083610cd6565b60018060008573ffffffffffffffffffffffffffffffffffffffff1673ffffffffffffffffffffffffffffffffffffffff1681526020019081526020016000206000828254610ff591906119f4565b9250508190555060018060008473ffffffffffffffffffffffffffffffffffffffff1673ffffffffffffffffffffffffffffffffffffffff168152602001908152602001600020600082825461104b919061199e565b925050819055508160008083815260200190815260200160002060006101000a81548173ffffffffffffffffffffffffffffffffffffffff021916908373ffffffffffffffffffffffffffffffffffffffff160217905550808273ffffffffffffffffffffffffffffffffffffffff168473ffffffffffffffffffffffffffffffffffffffff167fddf252ad1be2c89b69c2b068fc378daa952ba7f163c4a11628f55a4df523b3ef60405160405180910390a450505050565b61111085858585610ebc565b61111c84848484611162565b61115b576040517f08c379a0000000000000000000000000000000000000000000000000000000008152600401611152906118c0565b60405180910390fd5b5050505050565b60006111838473ffffffffffffffffffffffffffffffffffffffff16611274565b156112675763150b7a0260e01b7bffffffffffffffffffffffffffffffffffffffffffffffffffffffff19168473ffffffffffffffffffffffffffffffffffffffff1663150b7a02338887876040518563ffffffff1660e01b81526004016111ee9493929190611759565b602060405180830381600087803b15801561120857600080fd5b505af115801561121c573d6000803e3d6000fd5b505050506040513d601f19601f820116820180604052508101906112409190611528565b7bffffffffffffffffffffffffffffffffffffffffffffffffffffffff191614905061126c565b600190505b949350505050565b600080823b905060008111915050919050565b600061129a61129584611940565b61191b565b9050828152602081018484840111156112b257600080fd5b6112bd848285611a9c565b509392505050565b6000813590506112d481611d18565b92915050565b6000813590506112e981611d2f565b92915050565b6000813590506112fe81611d46565b92915050565b60008151905061131381611d46565b92915050565b600082601f83011261132a57600080fd5b813561133a848260208601611287565b91505092915050565b60008135905061135281611d5d565b92915050565b60006020828403121561136a57600080fd5b6000611378848285016112c5565b91505092915050565b6000806040838503121561139457600080fd5b60006113a2858286016112c5565b92505060206113b3858286016112c5565b9150509250929050565b6000806000606084860312156113d257600080fd5b60006113e0868287016112c5565b93505060206113f1868287016112c5565b925050604061140286828701611343565b9150509250925092565b6000806000806080858703121561142257600080fd5b6000611430878288016112c5565b9450506020611441878288016112c5565b935050604061145287828801611343565b925050606085013567ffffffffffffffff81111561146f57600080fd5b61147b87828801611319565b91505092959194509250565b6000806040838503121561149a57600080fd5b60006114a8858286016112c5565b92505060206114b9858286016112da565b9150509250929050565b600080604083850312156114d657600080fd5b60006114e4858286016112c5565b92505060206114f585828601611343565b9150509250929050565b60006020828403121561151157600080fd5b600061151f848285016112ef565b91505092915050565b60006020828403121561153a57600080fd5b600061154884828501611304565b91505092915050565b60006020828403121561156357600080fd5b600061157184828501611343565b91505092915050565b61158381611a28565b82525050565b61159281611a3a565b82525050565b60006115a382611971565b6115ad818561197c565b93506115bd818560208601611aab565b6115c681611b6d565b840191505092915050565b60006115de60168361198d565b91506115e982611b7e565b602082019050919050565b6000611601601c8361198d565b915061160c82611ba7565b602082019050919050565b6000611624601e8361198d565b915061162f82611bd0565b602082019050919050565b600061164760148361198d565b915061165282611bf9565b602082019050919050565b600061166a60138361198d565b915061167582611c22565b602082019050919050565b600061168d60148361198d565b915061169882611c4b565b602082019050919050565b60006116b060128361198d565b91506116bb82611c74565b602082019050919050565b60006116d360148361198d565b91506116de82611c9d565b602082019050919050565b60006116f660128361198d565b915061170182611cc6565b602082019050919050565b600061171960098361198d565b915061172482611cef565b602082019050919050565b61173881611a92565b82525050565b6000602082019050611753600083018461157a565b92915050565b600060808201905061176e600083018761157a565b61177b602083018661157a565b611788604083018561172f565b818103606083015261179a8184611598565b905095945050505050565b60006020820190506117ba6000830184611589565b92915050565b600060208201905081810360008301526117d9816115d1565b9050919050565b600060208201905081810360008301526117f9816115f4565b9050919050565b6000602082019050818103600083015261181981611617565b9050919050565b600060208201905081810360008301526118398161163a565b9050919050565b600060208201905081810360008301526118598161165d565b9050919050565b6000602082019050818103600083015261187981611680565b9050919050565b60006020820190508181036000830152611899816116a3565b9050919050565b600060208201905081810360008301526118b9816116c6565b9050919050565b600060208201905081810360008301526118d9816116e9565b9050919050565b600060208201905081810360008301526118f98161170c565b9050919050565b6000602082019050611915600083018461172f565b92915050565b6000611925611936565b90506119318282611ade565b919050565b6000604051905090565b600067ffffffffffffffff82111561195b5761195a611b3e565b5b61196482611b6d565b9050602081019050919050565b600081519050919050565b600082825260208201905092915050565b600082825260208201905092915050565b60006119a982611a92565b91506119b483611a92565b9250827fffffffffffffffffffffffffffffffffffffffffffffffffffffffffffffffff038211156119e9576119e8611b0f565b5b828201905092915050565b60006119ff82611a92565b9150611a0a83611a92565b925082821015611a1d57611a1c611b0f565b5b828203905092915050565b6000611a3382611a72565b9050919050565b60008115159050919050565b60007fffffffff0000000000000000000000000000000000000000000000000000000082169050919050565b600073ffffffffffffffffffffffffffffffffffffffff82169050919050565b6000819050919050565b82818337600083830152505050565b60005b83811015611ac9578082015181840152602081019050611aae565b83811115611ad8576000848401525b50505050565b611ae782611b6d565b810181811067ffffffffffffffff82111715611b0657611b05611b3e565b5b80604052505050565b7f4e487b7100000000000000000000000000000000000000000000000000000000600052601160045260246000fd5b7f4e487b7100000000000000000000000000000000000000000000000000000000600052604160045260246000fd5b6000601f19601f8301169050919050565b7f6e6f74206f776e6572206e6f7220617070726f76656400000000000000000000600082015250565b7f7472616e7366657220746f20746865207a65726f206164647265737300000000600082015250565b7f6e6f74206f776e6572206e6f7220617070726f76656420666f7220616c6c0000600082015250565b7f6d696e7420746f207a65726f2061646472657373000000000000000000000000600082015250565b7f746f6b656e20646f65736e277420657869737400000000000000000000000000600082015250565b7f6f776e6572203d207a65726f2061646472657373000000000000000000000000600082015250565b7f6e6f74206f776e6572206f6620746f6b656e0000000000000000000000000000600082015250565b7f746f6b656e20616c7265616479206d696e746564000000000000000000000000600082015250565b7f6e6f742045524337323152656365697665720000000000000000000000000000600082015250565b7f6e6f74206f776e65720000000000000000000000000000000000000000000000600082015250565b611d2181611a28565b8114611d2c57600080fd5b50565b611d3881611a3a565b8114611d4357600080fd5b50565b611d4f81611a46565b8114611d5a57600080fd5b50565b611d6681611a92565b8114611d7157600080fd5b5056fea264697066735822122015ee60b20dda7bba3bdeb3262da0ea56c8304b9dc0b5277aa23994f8bba7be4364736f6c63430008040033",
  "linkReferences": {},
  "deployedLinkReferences": {}
}